:020000040800F2
:10000000401A0120A90B000879080008950B000888
:10001000950B0008950B0008950B000800000000E8
:10002000000000000000000000000000690C000853
:10003000950B000800000000090C0008A91B00082F
:10004000D50D0008D50D0008D50D0008D50D000808
:10005000D50D0008D50D0008D50D0008D50D0008F8
:10006000D50D0008D50D0008D50D0008D50D0008E8
:10007000D50D0008D50D0008D50D0008D50D0008D8
:10008000D50D0008D50D0008D50D0008D50D0008C8
:10009000D50D0008D50D0008D50D0008D50D0008B8
:1000A000D50D0008D50D0008D50D0008D50D0008A8
:1000B000D50D0008D50D0008D50D0008D50D000898
:1000C000D50D0008D50D0008D50D0008D50D000888
:1000D000D50D0008D50D0008D50D0008D50D000878
:1000E000D50D0008D50D0008D50D0008D50D000868
:1000F000D50D0008D50D0008D50D0008D50D000858
:10010000D50D0008D50D0008D50D0008D50D000847
:10011000D50D0008D50D0008D50D0008D50D000837
:10012000D50D0008D50D0008D50D0008D50D000827
:10013000D50D0008D50D0008D50D0008D50D000817
:10014000D50D0008D50D0008D50D0008D50D000807
:10015000D50D0008D50D0008D50D0008D50D0008F7
:10016000D50D0008D50D0008D50D0008D50D0008E7
:10017000D50D0008D50D0008D50D0008D50D0008D7
:10018000D50D0008D50D0008D50D0008D50D0008C7
:10019000D50D0008D50D0008D50D0008D50D0008B7
:1001A000D50D0008D50D0008D50D0008D50D0008A7
:1001B000D50D0008D50D0008D50D0008D50D000897
:0801C000D50D0008D50D000863
:1001C80053B94AB9002908BF00281CBF4FF0FF31B6
:1001D8004FF0FF3000F00CB8ADF1080C6DE904CE1B
:1001E80000F008F8DDF804E0DDE9022304B0704708
:1001F800704700BF2DE9F04786468C460846089EA2
:10020800154674461946002B40F0C2808542B2FA62
:1002180082F245D94AB1C2F1200300FA02FC2EFA53
:1002280003F3954043EA0C0C94404FEA154EA8B2EC
:10023800BCFBFEF8230C0EFB18CC08FB00F943EAC4
:100248000C43994528D9EB1808F1FF3704D2994592
:1002580002D9A8F102072B44A3EB0903A4B2B3FB0C
:10026800FEFC0EFB1C330CFB00F044EA0344A042E6
:1002780014D92C190CF1FF3304D2A04202D9ACF1E5
:1002880002032C44241A43EA07401EB1D440002339
:1002980034607360BDE8F0874746DDE76346F1E701
:1002A80092BB431B01214FEA154EAFB2B3FBFEFCD4
:1002B800200C0EFB1C330CFB07F840EA034398455F
:1002C80062D9EB180CF1FF3004D2984502D9ACF191
:1002D80002002B44A3EB0803A4B2B3FBFEFC0EFB05
:1002E8001C330CFB07F744EA0344A7424ED92C19E8
:1002F8000CF1FF3304D2A74202D9ACF102032C441B
:10030800E41B43EA0040C0E7C2F1200320FA03F1EE
:10031800954090402EFA03F303434FEA154EAFB2CF
:10032800B1FBFEFC0EFB1C10190C0CFB07F841EA94
:100338000041884504FA02F422D969180CF1FF300B
:1003480004D2884502D9ACF102002944A1EB080186
:100358009BB2B1FBFEFC0EFB1C110CFB07F743EA3A
:1003680001439F420ED9EB180CF1FF3104D29F4292
:1003780002D9ACF102012B44DB1B41EA004192E7B0
:100388006046E3E76146F7E76046A3E76346B7E7F9
:10039800834206D916B9002108467BE7C6E900E082
:1003A800F9E7B3FA83F78FB9834201D3724508D8C6
:1003B800BEEB020460EB030301209C461EB900213A
:1003C80068E73846FAE7C6E9004CF8E7C7F1200CB9
:1003D800BB4022FA0CF41C432EFA0CF120FA0CF361
:1003E800B84001434FEA14490EFA07F5B3FBF9F890
:1003F8001FFA84FE09FB18300B0C08FB0EFA43EABF
:1004080000439A4502FA07F240D9E31808F1FF3091
:1004180004D29A4502D9A8F102002344A3EB0A03A7
:1004280089B2B3FBF9F809FB183308FB0EFE41EA61
:1004380003418E452CD9611808F1FF3304D28E454B
:1004480002D9A8F10203214443EA0040A0FB029824
:10045800A1EB0E014145CE46434602D306D14D4598
:1004680004D2B9EB020E68EB04030138002EA6D0C3
:10047800B5EB0E0261EB030101FA0CFC22FA07F35B
:100488004CEA0303F940C6E9003198E74046C5E75E
:100498004346D9E710B5BFF35B8F164C54E8003FCD
:1004A800013344E80032002AF8D1BFF35B8FBFF371
:1004B8005B8F2368BFF35B8F022B19DD4FF0FF338F
:1004C8004FF0FF320C4801F019FE0023BFF35B8F99
:1004D80054E8002F44E800310029F9D10748BFF358
:1004E8005B8F02F050FF0448BDE8104001F07EBE6B
:1004F80010BD00BFBC030120A8030120124800085A
:1005080070B50E4C0E4D0F4E2B7801212068994086
:1005180083685B6998472978206802F0A0FE0A4939
:10052800002808BF3146094802F02DFFFFF7B2FF47
:100538004FF4FA7002F0B7FEE6E700BFD4030120DB
:10054800C8030120114600080E4600081546000899
:1005580070B50D4C0D4D0E4E2B7801212068994039
:1005680083685B6998472978206802F078FE094912
:10057800002808BF3146084802F005FFFFF78AFF48
:10058800C82002F090FEE7E7D0030120C403012051
:10059800114600080E4600083D4600080E4D0F4C57
:1005A8000F4E08B529780122206802F06CFE30460B
:1005B80002F0E9FE642002F076FE00222978206825
:1005C80002F061FE074802F0DEFEFFF763FF4FF41A
:1005D800487002F068FEE5E7C0030120CC03012063
:1005E800654600087E460008F8B505460E461446DE
:1005F800106803F047FA30B94FF0FF34194802F099
:10060800C2FE2046F8BD23682B6021793160286836
:10061800E388DA07D0F810C04FF00107D0F808E0F7
:1006280054BF43F4B01383F4D013DCF800408F4078
:1006380023F48012DB074CBF3C43BC43CCF800409A
:10064800DEF800309847041E04DA3168064802F0E4
:100658009AFED6E7002231782868002402F013FEBB
:10066800CFE700BFA9460008CD460008F0B5344ED4
:1006780089B0344802F087FE334A31463348FFF7E1
:10068800B3FF002805DA324802F07DFE002009B0E9
:10069800F0BD304D304A29463048FFF7A5FF002805
:1006A800F1DB2F4C2F4A21462F48FFF79DFF0028EA
:1006B800E9DB2E48002703F02AFA31682C48002687
:1006C80002F061FE29682B4802F05DFE21682A4885
:1006D80002F059FE294802F056FE00240525284B51
:1006E8004FF40072274900942748CDE90667CDE901
:1006F8000354CDE9014401F017FE244802F043FEFB
:10070800234B4FF40072234900942348CDE9066730
:10071800CDE90354CDE9014401F006FE1F4802F07B
:1007280032FE1F4B4FF400721E4900941E48CDE95B
:100738000667CDE90354CDE9014401F0F5FDA5E7CD
:10074800C8030120EE460008F0430008D403012046
:100758000F470008C4030120E8430008D003012024
:10076800C0030120E0430008CC030120A8030120B6
:10077800314700084F4700086D4700088C470008BC
:1007880009050008400A012078010120B547000842
:100798005905000800080120F8000120DE4700087C
:1007A800A5050008C005012078000120014B1B6841
:1007B800184700BF00000120014B1860704700BFB8
:1007C8000000012030B585B004460D4610220021F6
:1007D800684603F081FA02232A4621468DF8023042
:1007E8006846034B019302F0DDFA05B030BD00BF47
:1007F800B507000880B505460E461746984602F02C
:1008080053F8DFF82090034603F0D2FA0446424634
:1008180049F8003039463046A84754F8090000F036
:10082800D9F900BF08000000034A0020536823F0EC
:1008380002035360704700BF002004E0064B1A68AB
:1008480042F400721A601A6842F480721A60034B0C
:10085800034A1A60704700BF003C0240380001207C
:100868000024F400014B036001207047F84300089E
:1008780008B5034B1B689847BDE8084000F026B848
:100888000400012030BFFFF7FDBF00BF2DE9F04194
:100898000B4E0546DFF82C80324606EB0807CC1BCA
:1008A8000949204603F00AFAA019083C42460021EB
:1008B80003F012FA07F108002C67BDE8F08100BFC9
:1008C8000000000004000000E0430008054B5A69DE
:1008D8009B689A4204D0044A536843F0805353609B
:1008E800704700BF5C05012000ED00E0264B70B5A5
:1008F80015469A6A064612F0100F9A6A14BF112418
:10090800102412F0080F9A6A18BF122492070AD509
:10091800586B9A6A140634D519B19A6A22F0800283
:100928009A62132401E06FF01500174B9A6A12F0CF
:10093800010F9A6A18BF142412F0200F9A6A18BF80
:100948001524D20602D49B6A9B070AD50E4B5B6816
:10095800190506D5314600F0F3F910B180F309887E
:100968000224094B9A6A920603D55A6A22F4005265
:100978005A629A6A204642F0FF029A6200232B705C
:1009880070BD6FF01500CCE700ED00E0134B9A6ADC
:1009980012F0007F9A6A14BF1E201D2012F0807F7B
:1009A8009A6A18BF1F2012F4002F9A6A18BF2120D4
:1009B80012F4802F9A6A18BF222012F4003F9A6A14
:1009C80018BF232012F4803F9A6A6FEA024218BFC8
:1009D80024206FEA12429A62704700BF00ED00E0DF
:1009E800194B024610B5986A9C6A10F4805F14BFD0
:1009F8001720162014F4006F9C6A18BF1820A4054D
:100A080009D5986B986A000404D51AB19A6A22F439
:100A180000429A6219200C4B9A6A12F4806F9A6A03
:100A280018BF1A20D2050CD49B6A13F4005F18BFB4
:100A38001C20054A936A43F47F43936200230B709A
:100A480010BD1B20F5E700BF00ED00E0484BF0B5F6
:100A58005B688BB004460025C3F3080385F311884F
:100A6800BFF36F8F02F07F40B0F17F4F11D102F0DA
:100A78000C0008280DD010074CBF0C460125002299
:100A8800033B8DF80720032B05D8DFE803F0256426
:100A980068612C46F3E700239DF80720D2B902AE1F
:100AA80004F120072068083454F8041C3246BC427C
:100AB80003C21646F6D1099A002D54D0C2F3080194
:100AC80021B96FEA52226FEA4222099202A9184616
:100AD80002F067FC0BB0F0BD254BDA6A9107DAD457
:100AE800DA6A002AD7DBDA6A5200D4D55A69A169D2
:100AF80042F480725A61BFF34F8FBFF36F8F5A6908
:100B080031F8021C22F480725A61BFF34F8FBFF391
:100B18006F8F4DF6027291420AD09A6AD2B24AB1E8
:100B28000DF1070201212046FFF7E0FE0346B3E777
:100B38002368B1E79A6A12F47F4F05D00DF10701D7
:100B48000120FFF74DFFF1E79B6AB3F5803FA2D381
:100B5800FFF71CFFEAE70DF107020021E3E70DF1BB
:100B680007010020EDE722F4FF7222F00102ACE752
:100B780000ED00E0044B5A6942F010025A615A69CC
:100B880022F008025A61704700ED00E0EFF3088098
:100B9800EFF3098101B57246FFF758FF01BD00BFA9
:100BA8000A4880F30888102080F3118808484FF419
:100BB8000461401880F30988EFF314800221084388
:100BC80080F31488BFF36F8F00F080F8401A01207B
:100BD800800C0120084B9B6883420BD1EFF30583FF
:100BE80043B1064B5A6842F080525A605A6A22F45E
:100BF80000425A6201F05EBE5C05012000ED00E093
:100C080014498A684FF030001044EFF3098C80E8EB
:100C1800F01F102080F31288BFF36F8F0E4F4FF034
:100C280000664A698A603E60106F0C4C2060506F05
:100C38000023536780F3118804B5104600F0E4F8E8
:100C4800BDE8044002F1300090E8F01F8CF30988F9
:100C5800704700005C05012004ED00E0D803012086
:100C68001EF0040F0CBFEFF30880EFF309808169D1
:100C780011F8021C0229FFD001B5724602F097FB59
:100C880001BD00BF40B2002807DB0123410900F085
:100C98001F00024A834042F82130704700E100E01B
:100CA80040B2013100284FEA0111C9B206DB00F158
:100CB800604000F5614080F80013704700F00F00B5
:100CC800014B1954704700BF14ED00E00F4A08B5F6
:100CD80022F07F020E4B9A60BFF34F8FBFF36F8FE6
:100CE800D3F8882022F47002C3F88820EFF3148325
:100CF80023F0040383F31488BFF36F8F01F04CF9DA
:100D080001F0FAFE00F056F801F094F9000000082E
:100D180000ED00E042F8203C203A009B0749536070
:100D2800019B21F001019360029B9161D3604FF018
:100D38008073D3610023026543677047FD0700088D
:100D4800094A0346906870B113F1160F006E05D07A
:100D5800A0F140029A4205D8834203D2814228BFBB
:100D680000207047002070475C05012015460A4A9C
:100D78000E4608B5094B9060026F1A6000F044F8FF
:100D88002C4686F309880020054B98472046002109
:100D980000220023034C20475C050120D8030120D2
:100DA800C7330008FD070008014B10221A6170477D
:100DB80000ED00E0002304481021C2180133622B23
:100DC80082F80013F9D1704700E100E008B5EFF3AD
:100DD8000583064A103B02EBC30152F83300496809
:100DE8008847BDE80840FFF771BD00BF6C400008A8
:100DF800024B0121024A034800F076B800000520A2
:100E08000000012008440008026E4021044B403ACB
:100E180018461A60034AC3E90112012100F06EB8AE
:100E2800DC03012000000B15084AC2F898000B6883
:100E380023F01F03034343F01003C2F89C308B6870
:100E480043F00103C2F8A030704700BF00ED00E096
:100E58002DE9F0430E4685B01F4604464FF00009C1
:100E6800DFF85480B14523DA6068D8B13FB1411E3C
:100E780008421BD11F2819D92368194216D12368A3
:100E8800019302F0B0FAA3680343D0B20393D8F8F1
:100E98009050C5F30725013DA84207D801A9FFF7DF
:100EA800C3FF421C09F101090C34DBE76FF015029E
:100EB800104605B0BDE8F08300ED00E0044B0522C4
:100EC800C3F89420BFF34F8FBFF36F8F704700BFF5
:100ED80000ED00E0BFF35F8F024B0022C3F89420BF
:100EE800704700BF00ED00E010B5034C01232278E5
:100EF800FFF7AEFF207010BD8C0501200B4A08B526
:100F080000231278FFF7A4FF10F1160F07D0084A44
:100F18000021D2F89030C3F30723984200DB08BDC4
:100F2800C2F898000130C2F8A010F2E78C05012041
:100F380000ED00E0544B2DE9F043544C85B0D3F854
:100F480090302568C3F307239D4200F29A80002061
:100F58000C26FFF7BFFF85421AD14D4C68464D4F0E
:100F68002570FFF77FFC00250646DFF81C81DFF8B7
:100F78002891AE4213D1237800204349D1F890201C
:100F8800C2F30722934276DB0020FFF797FF42E087
:100F9800616806FB0011FFF747FF0130DBE70098A7
:100FA8004FEA051C00EB0511CB683B40B3F5000F79
:100FB80048D00AD8B3F5001F30D0B3F5800F36D02B
:100FC800B3F5801F10D00135D3E7B3F1807F42D04D
:100FD800B3F1007FF7D150F80C30886802F003FABB
:100FE8004A6840F4802009E050F80C30886802F024
:100FF800FAF940F088504A6840F43020039020788D
:10100800CDE90123D8F89030C3F30723013B984278
:101018002AD96FF0150005B0BDE8F08350F80C3000
:10102800886802F0E0F94A6840EA0900E6E750F803
:101038000C30886802F0D7F940F0E0604A6840F464
:101048000030DBE750F80C30886802F0CCF94A68C9
:1010580040F08270D2E750F80C30886802F0C3F98B
:101068004A6840F08870C9E701A9FFF7DDFE2378D8
:1010780001332370A7E7C1F898300133C1F8A00005
:101088007CE74FF0FF30C6E700ED00E014440008AD
:101098008C0501200000F0FF0000081108B5024B84
:1010A8001B689847002008BDE8030120034B044A49
:1010B8001860937843F0020393707047E8030120A7
:1010C800080001200649074821F00701C1F1005234
:1010D80008B502F5A02202F017F9002008BD00BFEC
:1010E800871A0120EC0301202DE9F0410546002470
:1010F8004FF001080E4E0F4F2B7871691A19D2B2B2
:1011080008FA02F201EA02008A4309D153FA84F389
:10111800706157F833201AB107EBC3035968904739
:1011280001346A78E3B29A42E6D2BDE8F08100BFA2
:10113800003C0140F8030120044B1844002301330C
:1011480000F8012B9942FADC704700BF44000120E7
:1011580007B5062201210020FFF7EEFF0022062036
:101168001146FFF79DFD012107220846FFF7E4FF1E
:10117800002207201146FFF793FD082201210220D3
:10118800FFF7DAFF002208201146FFF789FD092240
:1011980001210320FFF7D0FF002209201146FFF7A5
:1011A8007FFD0A2201210420FFF7C6FF00220A2042
:1011B8001146FFF775FD052117220846FFF7BCFF0A
:1011C800002217201146FFF76BFD282206210A206E
:1011D800FFF7B2FF002228201146FFF761FD4FF408
:1011E800804344220648CDE9002383681B6823B165
:1011F8006946984703B05DF804FB6FF05700F9E7BC
:101208006C3E0008034660B1B0FA80F2C2F11F02DA
:10121800D2B205498856054A11680B431360FFF797
:1012280031BDFF22F5E700BF44000120003C01402A
:10123800024A136823EA000313607047003C014028
:10124800032921D8DFE801F0020C10190F4B9A6826
:1012580022EA00029A60DA6822EA0002DA6070473D
:101268000A4B9A680243F5E7084BDA680243DA60EA
:101278009A6822EA00029A607047044B9A6802430F
:101288009A60DA681043D860704700BF003C01409C
:1012980030B5B0B1B0FA80F3C3F11F03DBB20B482D
:1012A80050F833408C4204D100EBC3056D68954279
:1012B80005D044B940F8331000EBC3004260002069
:1012C80030BDFF23EBE76FF00F00F9E7F8030120CB
:1012D80060B1B0FA80F3C3F11F03DBB2044A002106
:1012E80042F8331002EBC30251607047FF23F5E761
:1012F800F803012000F003020F2304329200934008
:10130800074A43EA9000C3B2023352F82320030C81
:1013180093FAA3F302EA1040B3FA83F3D840704774
:101328000038014038B5244B14460D4618680B8820
:10133800C3F30B02092A1DD0072A134611D8CAB1D4
:10134800931E052B06D8DFE803F02E032E2C1E254E
:101358004FF4FA4020602B68B3F5805F25D2002057
:1013680038BD402A0DD008D822F00402302AF1D026
:10137800382BEFD06FF08500F2E7442A08D0A82A6E
:10138800F7E78008E6E700F0ADF8C0238008584387
:101398004008DFE700F0A6F8C02380085843C008DB
:1013A800D8E70648D6E70020D4E7C3F31333013360
:1013B800B0FBF3F02060D2E73800012000127A0079
:1013C80070B5444D00F0C2F8434C284602F0CCF802
:1013D80000F0B2FCA368414AC3F30313D35C20FABC
:1013E80003F613781D41AE4202D2284600F0D2FC23
:1013F800236843F480232360236843F48033236005
:10140800354B1A689103FCD55A6F42F001025A67AE
:101418005A6F9207FCD59A6802F00C02082A17D175
:101428001A68940707D41A6842F001021A602A4A17
:1014380013689807FCD5284B9A6822F003029A6033
:101448009A6812F00C0FFBD19A6822F0F0029A60A9
:10145800214C236823F08073236023689901FCD40E
:10146800636823F440336360636823F0706343F078
:101478000063636000F03AF8236843F080732360E8
:10148800154B1A689201FCD59A6822F0F0029A600E
:101498009A6822F0030242F002029A609A6802F007
:1014A8000C02082AFAD1AE4202D3284600F072FC98
:1014B8000B4B0020074A1A60074A936823F4E0534D
:1014C80043F4A0539360936823F4604343F40043C8
:1014D800936070BD00B0710B0038024043490008AA
:1014E800380001200048704700127A00114B124959
:1014F8005A681140114A0A4311495A605A68114002
:10150800104A0A435A601A6842F080721A60A3F5BA
:10151800E4331A6842F480321A605A68D203FCD560
:101528001A6842F400321A60074A53689B03FCD5D4
:10153800704700BF003802400080BCFF0430400004
:101548000080BFF00430400800700040064B82B0B5
:101558001A6C42F080521A641B6C03F0805301939A
:10156800019B02B0704700BF0038024008B5074829
:1015780002F088FA38B10648FFF798FD0448FFF7EB
:101588001BF9002008BD6FF01200FBE74C40000873
:101598009D1500080A2838B50446074D04D1AB68E4
:1015A8000D2128465B689847AB68E1B202485B6842
:1015B8009847204638BD00BF4C4000082DE9F84345
:1015C800D0F804801746D0F810900D46D8F80800D7
:1015D8001E4601F01DFFB7F5001F044616D1D8F8C6
:1015E80008402846FFF786FE84420CD1294601F0C0
:1015F8000FFF0446FFF71CFE2046FFF769FE002197
:101608002046FFF71DFE0020BDE8F883B7F5800FE0
:1016180020D0B6F1806F19D0B6F1C06F18D0B6F1EE
:10162800007F1AD102264A460F492046FFF730FEAE
:10163800B0B9D8F80810284601F0EDFE204631462A
:10164800FFF7FEFD2046FFF7DDFDDCE70126EAE7B0
:101658000326E8E76FF08500D6E76FF01500D3E7BB
:101668006FF00F00D0E700BFF337000838B5036903
:10167800044658600A4D284602F004FA60B1AB6887
:1016880061681B680C3123B12846984700EAE0706E
:1016980038BD6FF05700F9E76FF01200F8E700BFA8
:1016A8006C3E00082DE9F047044600EBC106002512
:1016B8001C4FB44201D1002014E02068C30600F09A
:1016C8001F0911D4656845F02005C0F3481AC0F316
:1016D8004420102823D857F82080B8F1000F0DD1E6
:1016E8006FF01200BDE8F087B9F1100F04D0B9F11E
:1016F800110FEAD16568E8E73025E6E7404602F0D1
:10170800C1F90028ECD04B462A460AF00F014046A2
:1017180002F081F8002804F10804CADAE2E76FF061
:101728001500DFE710450008F8B50C460369416865
:101738005D682379012B15D09F1E7E427E41B6023B
:101748006279022A96BF444F4FF4005737F8127057
:10175800A279022A09D0042A2FD0003B18BF0123FE
:101768001B0306E04FF4C066EAE7B3FA83F35B09AC
:101778001B07E2790968012A14BF4FF0000C4FF4E7
:10178800407CA5421CD10A6822F0805222F4B05253
:1017980032431A430A604B6823F440533B434B607F
:1017A80043681A68936823F4407343EA0C03936010
:1017B8002968BDE8F84002F092B84FF48053D8E7A2
:1017C800D1F800E00EF4C06E764506D0D1F800E0FE
:1017D8002EF4C06E4EEA06060E6041680E68716807
:1017E80001F440518F4204D0716821F440513943CB
:1017F800716041680E68316801F010218B4204D095
:10180800316821F010210B433360436819688B68F5
:1018180003F440739C4505D08B6823F4407343EA76
:101828000C038B6043681B689968490405D5032A33
:1018380009D09A6822F4804204E0032A03D19A6806
:1018480042F480429A6021682B68994203D002F0E2
:1018580046F823682B60F8BD08460008F7B5064629
:10186800446805695348286002F00CF9002800F024
:1018780097802868E16883681B68002B00F09480D3
:1018880098470028C0F28E8001AA0021206A01F042
:10189800DAFF0028C0F28680019B002219791868B7
:1018A800FFF700FF00287DDB756833692C685F68E7
:1018B800236823F001032360686802F0E3F8002836
:1018C8006ED0D5E901018368DB6803B1984754E815
:1018D800003F43F00C0344E80032002AF7D13946B0
:1018E8003046FFF721FF2B7D1BB1A36843F00803A7
:1018F800A3606B7D1BB1636843F400436360AB7DF9
:101908001BB1636843F480336360EB7D1BB163688C
:1019180043F4003363602B7E002B38D0264B9C4267
:101928001BD0A3F54C439C4217D003F580639C421F
:1019380013D003F580639C420FD003F580639C426B
:101948000BD003F544439C4207D0A3F51C439C42AB
:1019580003D003F580639C4229D173681A689368A1
:1019680043F48043936023686A7E23F0787343EAE4
:10197800425323602368AA7E23F4F81343EA024300
:101988002360EB7E1BB1A36843F40043A360236884
:1019980043F001032360E3699B02FCD5002001E0CA
:1019A8006FF0120003B0F0BD6FF05700FAE76FF068
:1019B8001500F7E76C3E000800100140F8B54368D1
:1019C80002460E4691F805E01C68036908795D68CF
:1019D80001288B791ED1BEF1020F72D9022B1F4646
:1019E8004FF4C0614FF4005C00F08380042B7BD07F
:1019F80020B1C31E012B79D94FF48050BCF5805F0C
:101A080000F08180BCF5405F7FD0BCF1000F1CD195
:101A180001231BE002280AD1BEF1020F5DD9022B77
:101A28001F464FF480610BD04FF4005CDEE7BEF137
:101A3800020F55D9022B1F4654D100285FD0002130
:101A4800C31E012B52D900200227032373454DD111
:101A580001F060FFB84249D1F37903B3012B56D1A5
:101A68002C4B9C421BD0A3F54C439C4217D003F54A
:101A780080639C4213D003F580639C420FD003F52A
:101A880080639C420BD003F544439C4207D0A3F5E6
:101A98001C439C4203D003F580639C4226D12368F3
:101AA8003146104623F001032360FFF73DFE23680B
:101AB80043F00103236096E8030085E80300002053
:101AC800F8BD4FF4C061144F022B37F81EC01F46F3
:101AD8008CD170B94FF0805090E74FF48061F2E7F5
:101AE8000021F0E700219FE7002885D06FF08500EE
:101AF800E6E7C31E012BF9D9022700207EE701463D
:101B08004FF08050A1E70023A0E702239EE7032BB4
:101B1800A6D0EBE700100140084600084FF0E0238C
:101B28000F4910B59C691A6908689B6902F48032EC
:101B38000C4934B993B903464AB90A681044C01A23
:101B480010BD002B08BF03460AB9A342F5D90A689D
:101B580002440A604FF0E0221269EEE70446F3E718
:101B680058050120540501200A4B1022002083F853
:101B780023204FF49642084B1A6044F6FF22074B85
:101B880018604FF0E0235A6198611A6942F0070221
:101B98001A61704700ED00E0580501205405012046
:101BA800684620F007018D4619B5FFF7B7FF1149C0
:101BB800114B0868D3E90042001942F10002C3E959
:101BC80000020E4A00230B604FF49643D2E900410D
:101BD800001BB0FBF3F043431B1941F10001C2E9BC
:101BE800003101F061F8FEF771FEBDE81940854645
:101BF800704700BF5405012000020120F8010120B0
:101C08002DE9F041DFF8E08099B1421C0BD14FF08B
:101C1800E022136923F0010313614FF07F43C8F8F2
:101C28000030BDE8F081D8F80060012807DC002703
:101C38000BE0431CD8F80060F7D14FF45A7040F21B
:101C480069339842A8BF1846471EEFF31185102341
:101C580083F31288BFF36F8FFFF760FF234C4FF0B9
:101C6800E0239969D4E9002380184FF0000243F17A
:101C78000003C4E900031E4B1A601E4B1A68831A3E
:101C88002ED44FF4964C0CFB073303F595437F3362
:101C9800B3FBFCF7131A184A0CFB0733B3F5966F1E
:101CA80038BF4FF49663934228BF1346C8F80030F4
:101CB8004FF0E022013B9069536100238142936118
:101CC800A1EB0003D4E9001238BF9B195B1842F15D
:101CD8000002C4E9003285F31188BFF36F8FA0E7D3
:101CE8004FF49663E2E700BF580501200002012087
:101CF80054050120F80101200078FF0038B5EFF302
:101D08001185102383F31288BFF36F8F084B1C686B
:101D1800084B1B68E41AFFF701FF85F31188BFF32E
:101D28006F8F4FF496432044B0FBF3F038BD00BFEB
:101D380000020120F8010120134908B58B6803F05F
:101D48000C03042B1BD0082B1BD14A684B6849682D
:101D580002F03F0213F48003C1F388111ABF0B4845
:101D680000230B48A1FB0001FEF72AFA064B5B682B
:101D7800C3F3014301335B00B0FBF3F008BD034834
:101D8800FCE70348FAE700BF0038024000127A0077
:101D98000024F40000285DD02F4B1A681B6802F459
:101DA8004042B2F5404F33D113F4803310D102F1E1
:101DB8000F6202F58C52904248D8284A904247D880
:101DC800274A904235D8274A904209D902230DE084
:101DD800254B984238D8234B98424FF0060305D834
:101DE800224A904202D9012B38BF012320490A68B0
:101DF80022F00F021A430A600A6802F00F029342A7
:101E080002D00A6802F00F02981A18BF0120704722
:101E180003F44043B3F5004F05D103F10F6303F515
:101E2800A343984212D80D4B984211D80C4B9842B4
:101E380001D90323DAE70B4B9842C7D80B4B9842DA
:101E480094BF00230123D1E70723CFE70523CDE77C
:101E58000423CBE70120704700700040000E2707DD
:101E6800804A5D05008793038058840C80C3C901AC
:101E7800003C024038B5EFF31185102383F3128834
:101E8800BFF36F8F064B9C6801F00FFE85F3118836
:101E9800BFF36F8F2046BDE83840FEF79BBE00BFFA
:101EA8005C05012038B50A4B53F82040013053F83F
:101EB8002050A54200D838BD606830B1037FDB07E9
:101EC80001D401F0F5FD0834F3E723689847FAE7F1
:101ED800F04500082B4B0122032070B52A4C86B030
:101EE8002A4D1A70FFF7DEFF00F056FF01F0FBFDE8
:101EF8000420FFF7D7FF26463034AE4210D3224CD9
:101F080000F0DAFB224EAC4226D300F0E9FBFEF7E4
:101F1800ADFB204A137B23F00103137306B070BD99
:101F280054F80C3C059354F8103C049354F8143CB2
:101F3800039354F8183C029354F81C3C019354F84A
:101F4800203C009354E90A2354E90C0100F09EF95F
:101F580054F8303C5E65CEE7D4E90A23B3F1FF3F7D
:101F680008BFB2F1FF3F05D052EA0301206803D150
:101F780000F076FC3034C6E73146183000F012FE27
:101F8800F8E700BF8D0501207C4300087C4300086A
:101F9800F13B00088802012006480021064A08B5DE
:101FA800121A01F09CFD0548054A0021121A01F099
:101FB80096FD08BD78000120900501200000002052
:101FC8000000002070B5002386B00122144E019352
:101FD8000446144D06EBC0161349CDE904230F221D
:101FE800CDE9023214234FF4A07203FB00554FF4DD
:101FF800C0700E4B00FB04113046009500F046F906
:10200800737B0B4A23F00403EE602C7473734FF454
:10201800046304FB033313446B6006B070BD00BF58
:10202800080201205C050120C0140120F13A0008D3
:10203800800C0120BFB50020FFF734FF274B83F346
:102048000888274D0024F023264F85F82230EC77A6
:102058002C766C76AC7685F820406B6A43F4E023E6
:102068006B62FEF787FDFEF79FFE4FF0FF33AB6212
:10207800EB62FEF75FFF1C4DFEF7BAFE1B4800F04F
:102088007FF901F0FEFCFEF7D9FB0120FFF70AFFFC
:102098000220FFF707FF00F057FB154B15494FF4D7
:1020A80080625D612846144B009405930123CDE9B5
:1020B8000144CDE903433B4600F0E8F86A7B064655
:1020C800284622F004026A7301F062FD2046FFF7F9
:1020D80079FF3A4631462846FEF748FEC0140120EB
:1020E80000ED00E0DD1E0008880201200803012041
:1020F8005C05012040160120534900082DE9F341F1
:10210800044617461E46EFF31188102383F31288FE
:10211800BFF36F8FC368334A7BB180689168884288
:1021280019D057EA060318D188F31188BFF36F8FC7
:102138006FF00F0002B0BDE8F081916891F90E10C0
:1021480001332161E3609368A36088F31188BFF3CA
:102158006F8F0020EEE72169F2E791F90E106FF01A
:102168007E0290F90E309942A8BF19469142B8BF35
:1021780011468B422DDD01F0C2FC05462246414640
:102188001948CDE9007600F0D3F90028E1D0EFF343
:102198001186102383F31288BFF36F8FA068D0B124
:1021A800236821699C420AD04BB193F90E309942B9
:1021B800A8BF19466FF07E039942B8BF194601F0CF
:1021C8009EFC40B13146084800F050FA6FF00A0012
:1021D800B0E70025D2E7002DF4D186F31188BFF3CC
:1021E8006F8FF3E75C0501208E050120F8B5836841
:1021F8000546002B3FD0234A926893423ED1C368DC
:10220800012B03D9013BC3600020F8BDEFF3118710
:10221800102383F31288BFF36F8F0169806801F080
:102228006EFC2C68A54207D10023C5E9023387F369
:102238001188BFF36F8FE7E7002CF5D0002604F173
:102248001800D4E9003213605A60637BA66023F05B
:102258000203C4E90066637301F009FDAC6094F9F8
:102268000E3020462B61A66701F092FC39460648DD
:1022780000F0FCF9C8E76FF01500C6E74FF0FF3033
:10228800C3E700BF5C0501208E05012007322DE958
:10229800F04322F0070285B00E461F46109900F160
:1022A80058037F3204460173042122F03F0206F1ED
:1022B800400941733F2AA2F14008C0E916334FF0A4
:1022C800000383600F98E373A073C4E9063305D84D
:1022D80083F31188BFF36F8F084602DFB5182046D5
:1022E8002946FEF7D3FA07300E9B314620F0070047
:1022F800C4E91898A0662D1A029320460D9B2A4619
:1023080001930C9B00933B46FEF704FD0023636595
:10231800044B9B6803B1DB6E2846E36605B0BDE855
:10232800F08300BF5C050120F0B5002587B00446A6
:102338000595109D04950F9D03950E9D02950D9D85
:1023480001950C9DDDE912760095FFF79FFFB6F128
:10235800FF3F08BFB7F1FF3F05D056EA070305D195
:10236800204600F07DFA204607B0F0BD3A463346D5
:10237800024904F1180000F015FCF4E7F13B0008ED
:1023880040F2011383810023C0E91833C366014B6F
:10239800986070475C050120094A6FF00A0193684C
:1023A8009967084958674B6843F080534B6000238E
:1023B80083F31188BFF36F8F9368986F704700BFDE
:1023C8005C05012000ED00E070B590F90D20437B1D
:1023D800002A36DBD90634D11B4C63F07F03224632
:1023E8004373E16952F8183F934207D1C0E90021CD
:1023F8000860E06111E09942F8D01B68002BF5D025
:1024080090F90E5093F90E60B542F4D0AE42F2DD69
:102418005968C0E9003108605860A569954200D044
:1024280005B9E568A3685A7BD20604D1DA897F2A00
:1024380001D9AA6932B1AB4202D0284600F004FBA8
:10244800656170BD6361FCE75C05012038B590F9F2
:102458000D200146437B002A04DA03F07F0343730F
:1024680001F05CFB0D4D2A46AB6852F8184F9442B8
:1024780000D004B9EC688B4207D05A7BD20604D14D
:10248800DA897F2A01D9A2692AB1A34202D020465B
:1024980000F0DAFA23466B6138BD00BF5C05012005
:1024A80070B590F90D200146437B002A04DA03F049
:1024B8007F03437301F032FB4B7B1C4C63F07F03BB
:1024C80022464B7352F8183FE069934207D1C1E99D
:1024D80000200160E16111E09842F8D01B68002BF0
:1024E800F5D091F90E5093F90E60B542F4D0AE4292
:1024F800F2DD5868C1E9003001605960A569A36838
:10250800954200D005B9E5688B4207D05A7BD206C0
:1025180004D1DA897F2A01D9AA692AB1AB4202D04B
:10252800284600F091FA2B46636170BD5C050120D6
:10253800F8B5124B0C461146114A9868DDE9067643
:102548001060EFF31182102282F31288BFF36F8FAD
:102558009D68284601F0F4FAB6F1FF3F08BFB7F1CD
:10256800FF3F06D03A463346064905F1180000F009
:1025780019FB2046BDE8F840FFF70EBF5C050120B7
:102588007C050120F13B0008F8B50446EFF31187FC
:10259800102383F31288BFF36F8F437B49B203F094
:1025A8001F02002A0CBF0126002639D103F07F0341
:1025B8002D4D437301F0B2FA437B2A46817363F0D1
:1025C8007F03437352F8183F934227D1E869C4E95F
:1025D80000200460EC610FE09842F8D01B68002BE3
:1025E800F5D093F90EC06145F6D08C45F4DD5968F5
:1025F800C4E900310C605C60AC69944200D004B955
:10260800EC68AB689C4202D0204600F01DFA6C6171
:1026180087F31188BFF36F8F3046F8BDE869DEE7AE
:102628009B071ED5856801F079FA81732B689D4256
:1026380009D16B68C4E900531C606C60E8E76A68FC
:102648009342F6D01B68002BF3D093F90E209142E9
:10265800F5D08A42F3DD5A68C4E9003214605C6040
:10266800D6E78173D4E700BF5C05012049B9EFF3D1
:10267800058030B9054B5A699B689A4201D0FFF72B
:102688008BBE81F31188BFF36F8F70475C05012003
:10269800034648B9EFF3058232B9064A5169926890
:1026A800914201D0FFF778BE83F31188BFF36F8F93
:1026B800704700BF5C050120EFF31181102383F3FD
:1026C8001288BFF36F8F054B9A68D37B013BD37396
:1026D80081F31188BFF36F8F704700BF5C0501203D
:1026E80070B5EFF31186102383F31288BFF36F8F51
:1026F800144DAB68DA7B0132DA732A4652F8184F68
:10270800944200D004B9EC685A7BD20604D1DA8925
:102718007F2A01D9A2692AB1A34202D0204600F03B
:1027280093F923466B6186F31188BFF36F8FEFF33C
:102738001180102383F31288BFF36F8FBDE87040B8
:10274800FFF7A6BF5C050120024B03F11802C3E99D
:10275800062270475C05012070B5EFF3118610233F
:1027680083F31288BFF36F8F1B4CA168E0690B6875
:10277800814214BF1A46002249680B605960A36859
:10278800E1692AB9154AC3E900210B60E3610CE04D
:1027980093F90E0092F90E50A84218D0854216DD22
:1027A8005168C3E900210B605360A5690B4B9D423A
:1027B80000D005B9E568A3689D4202D0284600F01C
:1027C80043F930466561BDE87040FFF7E5BD8A42D0
:1027D800D8D01268D5E700BF5C0501207405012038
:1027E80051EA00032DE9F04105460E4604D1FFF7F2
:1027F800B3FF0020BDE8F081431C71F1FF3324DBF7
:1028080001F058FA4419EFF31188102383F3128862
:10281800BFF36F8F0F4F104BB8681860FFF716FEA5
:10282800B8682A460D493346183000F0BBF9BA6833
:102838004046537B43F004035373FFF7ADFD01F0AB
:1028480039FA201A20EAE070D4E76FF00104241A5C
:10285800D9E700BF5C0501207C050120F13B000899
:1028680038B50446EFF31185102383F31288BFF3BC
:102878006F8F437B5B070FD5183001F0F8F9637B46
:10288800204623F004036373FFF79EFD294605489D
:10289800BDE83840FFF7EABE85F31188BFF36F8FB4
:1028A80038BD00BF8E050120014B9868704700BFF6
:1028B8005C0501202DE9F8430446077BEFF31185F9
:1028C800102383F31288BFF36F8F437B190705D555
:1028D80085F31188BFF36F8FBDE8F883D90943F0FA
:1028E80008025AD14273A36813B1204601F01EF9B9
:1028F80004F1180004F1580801F0B9F9A66DB045C3
:1029080011D04FF0000976B1304601F00FF906F109
:10291800180001F0ACF93046C6F87890FFF754FD7E
:10292800A66DB045EFD1DFF8B880D8F808309C42E2
:102938003BD1EFF30589B9F1000918BF4FF0010940
:10294800D8F81860274A964200D00EB9D8F80C601B
:10295800B34202D0304600F077F8C8F81460B9F1F5
:10296800000F02D02048FFF70BFDD8F808309C4232
:1029780031D1EFF3058373BB227BD20718D42846E5
:10298800FFF70AFDFB07A7D5002383F31188BFF3E0
:102998006F8F0423184602DF9EE703F07F0343F09E
:1029A8000803437301F0BAF89DE74FF00009C7E741
:1029B80085F31188BFF36F8F83F31188BFF36F8F8F
:1029C8000423184602DFEFF31180102383F31288E3
:1029D800BFF36F8FD4E785F31188BFF36F8FD1E70B
:1029E8005C0501207405012008030120044B012225
:1029F800C01A044BC0105843034B1A54704700BF09
:102A080088030120ABAAAAAA8E050120C3897F2BBF
:102A180012D80A4B1B6863B1094B90F90E201B684A
:102A28009A4209DB437BDB0606D1064BC31A18BF63
:102A3800012303F0010070470023FAE78405012011
:102A480080050120080201200E4B70B51E7C05464A
:102A58000D4C06EB460304EBC304204601F007F9CE
:102A68000A4B002228469A55FFF7D0FF48B1084B79
:102A7800204608491A68013ABDE87040D31700F0AB
:102A880091B870BD5C050120880301208E050120E6
:102A980084050120F529000838B5EFF311851023C6
:102AA80083F31288BFF36F8F104B114A9C6810682C
:102AB800A04206D1FFF7C8FF85F31188BFF36F8FD7
:102AC80038BD00211B7C11600A4AD35C002BF3D06F
:102AD8002046FFF79BFF0028EED0637BDB0602D180
:102AE8002046FFF7DDFC2046E4E700BF5C05012037
:102AF8007C0501208E0501200A480B4A0B49121A51
:102B080008B500F0EEFF0A480A4A0B49121A00F00D
:102B1800E8FF0A480A4A0B49121ABDE8084000F0C3
:102B2800E0BF00BF0000012074000120A449000894
:102B38000000012000000120A44900080000002036
:102B480000000020184A0008024B1868984208BF85
:102B5800002070473C000120034B1B680BB9FFF7AE
:102B6800CDB80020704700BF8805012030B570B18E
:102B78000B4B5B6898420AD0036843B1D3E9042140
:102B8800D0E90445121941EB0501C3E90421D0E954
:102B9800003213605A600023C0E9003330BD00BF23
:102BA8003C000120B3F1FF3F08BFB2F1FF3F2DE920
:102BB800F84304461D469046184664D0A160EFF3DA
:102BC8001187102383F31288BFF36F8F013275F1D9
:102BD800FF331BDBFFF7C0FF18F1010306464FF078
:102BE800010145F100051B1845EBE075C4E9043502
:102BF800FFF7AAFFDFF8A4E0DEF80480E0B9C4E933
:102C080000E8C8F80040CEF8044027E024496FF0F7
:102C18000103D1E9002500219B1A4FF0FF3262EB36
:102C28000505B3EB080365EB0005012B75F1000200
:102C3800BCBF01230025D9E7D0E9042CD4E9043529
:102C4800934275EB0C0920DAD21A43686CEB050540
:102C5800C0E90425C4E900031C604460FFF774FF61
:102C680084420CD10F4B1B684BB911B9FFF774FFA5
:102C78000646304600F0E4FF0021FEF7C1FF87F367
:102C88001188BFF36F8FBDE8F8839B1A65EB0C05BD
:102C98004045C4E90435B2D00068AFE73C000120E4
:102CA800A0030120880501202DE9F047EFF31185E5
:102CB800102383F31288BFF36F8FDFF8A4900026E8
:102CC800DFF8A0800027C9F80000FFF73DFFD9F81A
:102CD8000030D8E900ECD91750B1D0E90442A3423A
:102CE80071EB020A1CDAE41A62EB0102C0E9044241
:102CF80013EB0E034FF000044CEB01012046C9F81A
:102D08000040C8E9003100F09BFF2146FEF778FF3C
:102D180085F31188BFF36F8FBDE8F047FFF7BCBE9E
:102D280014EB0E024CEBE473C0E90467C8E9002316
:102D3800FFF71CFF85F31188BFF36F8F83689847EF
:102D4800EFF31185102383F31288BFF36F8FD9F83F
:102D580000301B1BC9F80030FFF7F6FEB7E700BFCD
:102D680088050120A003012010B5EFF3118410237A
:102D780083F31288BFF36F8FFFF7EEFE054A034611
:102D8800D2E90001181841EBE37184F31188BFF30D
:102D98006F8F10BDA0030120014800F0F4BA00BFF6
:102DA800584900082DE9F04F8DB0436802938378A5
:102DB80015469A07804640F10D8100240E78002EB2
:102DC80000F00A81252E0BD04B1C03930134029B83
:102DD8004146304698470028C0F2F6800399EDE74F
:102DE8004E788B1C252E0393F0D00027B946BB469E
:102DF800BBF11F0F38D8A6F12003102B0AD8DFE843
:102E080003F02A0909300909092109090928092DA6
:102E180009091F00A6F13003092B33D92A2E37D10F
:102E28001BF0400F55F8043B40F08280002BA7BFF1
:102E38004BF0200B9946C3F100094BF0280B01E039
:102E48004BF0010B039B13F8016B0393002ECFD1BA
:102E580030E04BF0020B4BF0040BF3E74BF0080BA0
:102E6800F0E74BF0100BEDE7BBF17F0F19D8A6F197
:102E78003003092BD2D81BF0400F03D00A2101FBE5
:102E88000737DFE70A2101FB09394BF0200BD9E7A7
:102E98002E2E06D11BF0400F40F09E804BF0400BC9
:102EA800D0E76C2E31D02BD8682E36D06A2E3CD085
:102EB8004C2E3AD0002F46F02003B8BF2BF040022A
:102EC800A3F16501BCBF1FFA82FB0027022901D9C3
:102ED800612B2FD1073525F00705DFF8ACA208359F
:102EE80007271BF0080F66D00AEB070B56465E450E
:102EF80063D1A4EB0A0A06EB0A02A9EB07096FE102
:102F0800742E9FD07A2E9DD0D4E71BF0800F18BF67
:102F18004BF4007B4BF0800B94E71BF4807F18BFC9
:102F28004BF4007B4BF4807B8CE74BF4207B89E7E8
:102F38001F4687E7A6F16301122900F2F080DFE857
:102F480011F013004F00EE00EE00EE00EE004F000F
:102F5800EE00EE00EE00EE00EE00FE00E900EE00EE
:102F6800EE001B00EE00AF0055F8043B8DF818305A
:102F780001270DF1180AB4E755F804AB834BBAF1F1
:102F8800000F08BF9A461BF0400F14BF39464FF098
:102F9800FF31504600F0A8FE0746A2E7029B4146D3
:102FA8002020984700280FDB013EB742F6D34C4457
:102FB800A41BB14698E74E46F7E716F8010B029BAB
:102FC80041469847002892DA98F8023043F0040303
:102FD80088F802304FF0FF3420460DB0BDE8F08F7E
:102FE8001BF0800F34D01BF4007F2CD0073525F060
:102FF8000705AA4669685AF8080B2BF0100500293E
:10300800ADB237DA404261EB410145F480650DF11C
:10301800180B0A235A4600F073FEA0EB0B0301932A
:103028006B0662D5019B25F001019F4289B240F3EE
:10303800A180002E00F0998015F0100240F09C80CD
:10304800BB460D4623E0AA465AF8040BC117D4E73D
:10305800AA461BF4807F5AF8041B01D10846F5E7FD
:103068001BF4007F15BF48B208B241F3C01141F309
:10307800C031C2E750EA0103C9D11BF0400FC6D0E6
:10308800002FC4D12BF0110295B2BB46019740F234
:10309800064115EA01021CBF0BF1010B00222CE0CE
:1030A8002BF010021FFA82FB0A231BF0800C49D078
:1030B8001BF400711DBF073525F00705AA46AA466F
:1030C8001ABF5AF8080B69685AF8040B50EA010548
:1030D80045D12BF016051BF0400FADB242D0002FA2
:1030E80040D12BF0170295B2019715F0100248D085
:1030F800019B002E42D103F1010B29075AD4EB079B
:1031080006D5D9456FDD0199A9EB0B035F18CB46AE
:103118005B4649E04BF0100B10237826C5E7782B67
:1031280004D1C6F1780343F01003BEE7029B414681
:10313800252098470028FFF647AF023447E60823C2
:103148000026B2E7AA461BF480715AF8040BBDD0DA
:103158001BF400711ABFC0B2614680B2B6E72BF00B
:10316800060295B20DF1180B54E725F01105ADB222
:10317800BB468CE70D46B8E73B460D4603F1020B0C
:10318800BBE7DDF804B082E79A49000893490008D4
:10319800CDE904324146029B202098470028FFF6DB
:1031A80013AF049B059A01339945F1DCA4EB0B019D
:1031B800CC189B460AB3029B41463020984700280A
:1031C800FFF602AF8EB901342744019B391B99429F
:1031D80024DC1D465DBB019AA9EB0B092244554628
:1031E8001446914435E0019F92E702344146304647
:1031F800029B98470028E7DAE6E640F206410D42CE
:10320800E2D015F0020F14BF2B20202015F4806F98
:1032180004F10104414618BF2D20E9E7029B41460D
:1032280030209847002804F10104CEDACCE606AB3A
:10323800013D4146585D029B98470028CADAC3E61B
:10324800029B414620209847002804F10104FFF61C
:10325800BBAEA9EB0403002BF2DCBFE5704737B522
:103268000C460569836801A95B68984748B9019BC2
:103278002A685A40012303FA04F10A4214BF184687
:10328800002003B030BD012303FA01F103691B6874
:10329800194218BF82F0010212B18368DB6818472F
:1032A80083681B69FBE70A2180FB010100F0A0BCD1
:1032B80000EBC100408840087047F8B50346FFF7A7
:1032C800F7FFB0FA80F0CA000C468DB2C0F11F00BB
:1032D800171D063203EB800CDCF8106056B901218B
:1032E80001FA00F0D9680143D960CCF81040DD53E9
:1032F8009D52F8BDF1000431585AD85303EBC00071
:103308009E52C5805D52F4E7043A2DE9F041CC1D88
:1033180011444FF0000824F0070421F007010E1BA8
:103328000460414604F11000F708C4F80C80B7FAAD
:1033380087F2A760C2F12405C2F12002AD00920015
:10334800073500F0C9FCA4F800802046ED086B00A2
:1033580004EBC50243F0010363807B1B59005180D5
:10336800A21924F835502946A2F80280A35304EB89
:10337800C7035A8842F001025A80BDE8F041FFF7BE
:103388009CBF002070470FB407B504A951F8040B7F
:103398000191FDF717FA03B05DF804EB04B070472C
:1033A8007047012801D1EFF30583FEF763BD01469D
:1033B8000068FFF7F6BF00210120FFF7F2BF61B6F2
:1033C80062B680F31188BFF36F8F704772B600231F
:1033D80083F31188BFF36F8FBFF34F8F30BF62B68F
:1033E800BFF36F8F7047202809D9B0F1004F08D874
:1033F8000138B0FA80F0C0F11F0040007047082083
:1034080070473E20704708B5FDF748FE002008BD0C
:1034180001208840704700F003020F230432920015
:10342800934043EA9000C3B2020C9B0092FAA2F2C6
:1034380003F18043B2FA82F203F59C33914010B550
:103448009C6824EA10400143996010BD0B8882B043
:10345800C3F30B0303F57D62C2F30B02782A14D879
:1034680003F18043486803F50E331A6802430020CD
:103478001A600B88C3F30B0303F1804303F50E3383
:103488001B680193019B02B070476FF08500FAE753
:103498000B88C3F30B0303F57D62C2F30B02782A92
:1034A8000AD803F180434968002003F50E331A68EF
:1034B80022EA01021A6070476FF0850070470138F0
:1034C800082809D840F27513C34013F0010F14BF40
:1034D80000206FF0850070476FF08500704710B5C9
:1034E8000888C0F30B00FFF7EAFF00281FDB4A68D3
:1034F800FF2A1BD093B2C2F38454C2F3054203F1EE
:10350800804304FA02F203F50E33186820EA020237
:103518001A6049688BB2CA0EC1F3054103F18043B2
:103528008A4003F50E33186802431A60002010BD64
:103538000888C0F30B0008B500F57D63C3F30B03DF
:10354800782B0AD800F180404B6800F50E300268ED
:10355800934314BF0120022008BDFFF7B0FF0028E5
:1035680014BF01200220F7E77047436800205B681A
:103578001B690B60704743685B68586942400A40A2
:10358800424000205A617047436800205B68996197
:1035980070474368090400205B6899617047436875
:1035A80000205A6853694B405361704710B503694E
:1035B8009868F8B1884219D1DC680868A142986017
:1035C80000D1D860002008602AB19A680A60DA68D9
:1035D800996002B9D960002010E0814206D10868DC
:1035E8002060D8688142EDD1DC60EBE704460068D2
:1035F8000028F2D1002AE8D16FF0150010BDF0B50F
:10360800446801201E46C2F38013676888408B40D7
:103618004FF0030E27EA000702F030053B43202D48
:1036280090FAA0F7B7FA87F76360D4F808C0C2F336
:10363800C1134FEA4707C2F341220EFA07F72CEAF3
:10364800070C90FAA0F7B7FA87F74FEA470703FA8B
:1036580007F343EA0C03A36090FAA0F3B3FA83F3E9
:10366800E7684FEA43030EFA03F327EA030790FAE1
:10367800A0F3B3FA83F34FEA430302FA03F242EAF0
:103688000702E26016D107292BD8226A90FAA0F324
:103698002BB3B3FA83F39B000F2101FA03F322EA59
:1036A800030290FAA0F3B3FA83F39B0006FA03F33C
:1036B8001343236290FAA0F3B3FA83F3032190FA39
:1036C800A0F05B00B0FA80F022682D0901FA03F33C
:1036D800400022EA030385401D432560F0BD2B46C8
:1036E800D9E7030A616A93FAA3F282B1B2FA82F2C5
:1036F80092000F2793FAA3F3B3FA83F307FA02F2BF
:103708009B0021EA02029E4016436662D2E72A46DF
:10371800EEE712F4003CF8B505460C4613461DD0FA
:10372800960714D550075DD55022D90611D542F415
:10373800007203F4C061B1F5806F42D0B1F5C06F7B
:1037480019D0B1F5007F18D142F0800215E010229F
:10375800EBE79F06EDD542F48062EAE7D60305D58C
:10376800D00605D4C2F340129202E2E73022E0E725
:103778004FF40072DDE742F4C07213F440372E694B
:1037880008D0306920FA04F1C9075FBF0121A140C0
:1037980001433161BCF1000F06D0180314D56968E4
:1037A80001234968A3408B61002321466868FFF71D
:1037B80026FF27B9336923FA04F2D2070CD4002074
:1037C800F8BD42F48072D8E75903EDD501212846A7
:1037D800A140FFF7DEFEE7E70122A24023EA020349
:1037E8003361ECE76FF08500EAE770B50B4689684E
:1037F800054611B15E680C6801B970BD8A682A4037
:1038080002D04B68304698471CB1236821461C46B5
:10381800F2E72346FAE7F8B51F46044640680E4625
:103828001546FFF7ECFE112F07D101212B0501FAF0
:1038380006F104D563685B6899610020F8BD2046ED
:10384800FFF7A7FEF9E730B5036813600579046848
:1038580004EBC504A34202D36FF0010030BD5C79CC
:103868008C4201D00833F0E70020F7E74368C1F342
:103878004B1001F01F011B68C05801238B40034205
:103888004FF0000014BF012300231370704710B5D8
:103898004368C1F34B1001F01F011A6801238458D3
:1038A8008B4023438350002010BD10B54368C1F3FB
:1038B8004B14012201F01F0118688A40235823EA9B
:1038C80002032350002010BD38B504460D46FFF70B
:1038D800DEFF29462046FFF7E8FF002038BD37B550
:1038E80002690C46436810681D68D9688368DB68FC
:1038F80073B101AA984700280ADB2B6823F4004318
:103908002B60019B03EB5403B3FBF4F39BB2EB6016
:1039180003B030BDB0F5805F07D0B0F1805F09D14A
:10392800002914BF012002207047002914BF03207A
:1039380004207047002914BF022003207047436801
:103948001B68D869DA69C0F3C000D107DA6948BFD3
:1039580040F002009207DA6948BF40F004005107BE
:10396800DA6948BF40F02000D20504D54FF48072D0
:1039780040F008001A62C10701D508221A628207BE
:1039880001D501221A62410701D502221A62820674
:1039980001D504221A62704710B5436810201B68CD
:1039A800DA691206FCD5EFF3118280F31288BFF3AF
:1039B8006F8FDC69240604D482F31188BFF36F8FFC
:1039C800EEE7996282F31188BFF36F8F10BD4368E9
:1039D8001B68DA69100701D508221A62DA699206AB
:1039E80003D55B6A00200B7070474FF0FF307047BB
:1039F80010B5026904460B46526812680A604268AC
:103A08001268126802F4C062B2F5806F33D0A2F572
:103A1800C060424242411A7162681268526802F4F8
:103A28004052B2F5805F28D0B2F5405F27D0002A17
:103A38000CBF012203225A7162681268106811686B
:103A480000F0102001F4C061FFF764FF987162680C
:103A580000201268926802F44072A2F540714A424E
:103A68004A41DA7161680968896811F4804F18BFA2
:103A78000322DA7110BD0222CDE70022DBE7022221
:103A8800D9E7704740B1C368587810F001001EBFED
:103A98001878B0FA80F040097047EFF311831023CB
:103AA80083F31288BFF36F8FFEE708B5FFF7F5FFC2
:103AB80010B54369044633B90020E268537843F0EF
:103AC8000103537010BD98470028F5D00028E3681B
:103AD800B8BF4042FF28A8BFFF201870EDE700F0EC
:103AE800FBB800F0EBB87047102408B5EFF311836A
:103AF80084F31288BFF36F8FFFF768FCF6E790F93D
:103B08000E308B4201D0FEF73FBD002070470346C0
:103B18000020C3E90033C3E902007047D0E900324E
:103B280013605A600023C0E90033704708B5FFF7F7
:103B3800F5FF437B23F0020343730023836008BD32
:103B480038B504460D46FEF781FC637B43F002035B
:103B58006373E5B1A5602B689D4209D16B68C4E920
:103B680000531C606C6012E06A689A42F6D01B68C9
:103B7800002BF3D094F90E2093F90E108A42F3D05B
:103B88009142F1DD5A68C4E9003214605C6038BDC6
:103B980010B5EFF31184102383F31288BFF36F8FEE
:103BA800FEF712FC84F31188BFF36F8F10BD014636
:103BB80010B5EFF31184102383F31288BFF36F8FCE
:103BC800437B13F0280F0AD183680BB1FFF7AEFFD0
:103BD8004B7B084623F004034B73FEF7F5FB84F395
:103BE8001188BFF36F8F10BD01211838FFF7DFBFB1
:103BF80038B504460D46FEF7F3FD0346B5F1FF3F21
:103C080008BFB4F1FF3F204614D013F109004FEA72
:103C1800E37141F100010A2871F100030BD36FF041
:103C28000A0383424FF004038B4106D30A22002380
:103C3800FCF7C6FA38BD0020FCE76FF00040F9E752
:103C480008B50246FEF780FF70B1D0E904319B1A2F
:103C580061EBE272B3F1004F72F1000104DA002A5D
:103C6800ACBF1846002008BD6FF00040FBE70246D5
:103C780038B5EFF31185102383F31288BFF36F8FE4
:103C88000368A3B1FEF760FF04461046FEF76EFF17
:103C9800844206D1FEF760FFFFF7D2FF0021FDF74F
:103CA800AFFF002085F31188BFF36F8F38BD6FF029
:103CB8001500F7E708B5FFF757F808BD0A44914221
:103CC80000F1FF3300D1704710B511F8014B03F82C
:103CD800014F9142F9D110BD02440346934200D1ED
:103CE800704703F8011BF9E710B5024601448A4200
:103CF800134603D01C780132002CF8D1181A10BDD5
:103D0800F0B5C3F137070446FFB203F01F031046AE
:103D1800082BE6B233D0102B3ED06508A40844EA3D
:103D2800817445EAC1752D194FEA910242EB51029F
:103D3800290941EA02716D1842EB1212290A41EA77
:103D480002616D1842EB1222290C41EA02416D18FA
:103D580042EB1242AD1842F10002EC0844EA427408
:103D6800D10804EB8402A6EB4205EDB2092D0CD96B
:103D78000134A5F10A0541F10001EDB212E0E408B1
:103D880044EA417406F00705C908303554EA0102CF
:103D980000F8015BBCD1F0BD240944EA017406F0C7
:103DA8000F050909092D84BFED19EDB2EDE70000F3
:0C3DB8000148006870470000D80301209B
:083DC40038C4FF7F010000007C
:103DCC00000000006C3E00083108000800000000F4
:103DDC00000000008C3E000800000000CC3F0008F2
:103DEC0000000000EC3F000800000000AC3E0008A2
:103DFC0000000000AC3F0008000000000C40000870
:103E0C00000000008C3F0008000000006C3F000820
:103E1C00000000004C3F0008000000002C3F000890
:103E2C00000000000C3F000800000000EC3E000801
:103E3C0000000000CC3E0008000000004C400008D0
:103E4C00000000002C400008751500080000000060
:103E5C00711B000800000000CD10000800000000DD
:103E6C006B48000800000000B04300085600012019
:103E7C0000000000C9130008000000000000000052
:103E8C001249000854450008A04300086E000120A8
:103E9C000000000000000000000000000000000016
:103EAC004D480008000000000000000054000120F4
:103EBC00F803012059110008000000000000000068
:103ECC0078480008344400087C430008580001205E
:103EDC0078040120751600080000000000000000A6
:103EEC0086480008484400087C4300085A0001201A
:103EFC008C04012075160008000000000000000072
:103F0C00944800085C4400087C4300085C000120D5
:103F1C00A00401207516000800000000000000003D
:103F2C00A2480008704400087C4300085E00012091
:103F3C00B404012075160008000000000000000009
:103F4C00B0480008844400087C430008600001204D
:103F5C00C8040120751600080000000000000000D5
:103F6C00BE480008984400087C4300086200012009
:103F7C00DC040120751600080000000000000000A1
:103F8C00CC480008AC4400087C43000864000120C5
:103F9C00F00401207516000800000000000000006D
:103FAC00DA480008C04400087C4300086600012081
:103FBC000405012075160008000000000000000038
:103FCC00E8480008D44400087C430008680001203D
:103FDC001805012075160008000000000000000004
:103FEC00F6480008E84400087C4300086A000120F9
:103FFC002C050120751600080000000000000000D0
:10400C0004490008FC4400087C4300086C000120B3
:10401C00400501207516000800000000000000009B
:10402C002349000858450008CC43000870000120C3
:10403C0018000120651800080000000000000000B6
:10404C0033490008A4450008CC4300087200012045
:10405C002800012065180008000000000000000086
:10406C0000000000BF33000800000000BF33000850
:10407C0000000000BF33000800000000BF33000840
:10408C0000000000BF33000800000000BF33000830
:10409C004B480008F110000849480008F1100008CE
:1040AC0047480008F110000845480008F1100008C6
:1040BC0043480008F110000800000000BF3300085E
:1040CC0000000000BF33000800000000BF330008F0
:1040DC0000000000BF33000800000000BF330008E0
:1040EC0000000000BF33000800000000BF330008D0
:1040FC0000000000BF33000800000000BF330008C0
:10410C0000000000BF33000800000000BF330008AF
:10411C0000000000BF33000841480008F1100008FF
:10412C0000000000BF33000800000000BF3300088F
:10413C0000000000BF33000800000000BF3300087F
:10414C0000000000BF33000800000000BF3300086F
:10415C0000000000BF33000800000000BF3300085F
:10416C0000000000BF33000800000000BF3300084F
:10417C0000000000BF33000800000000BF3300083F
:10418C0000000000BF33000800000000BF3300082F
:10419C0000000000BF33000800000000BF3300081F
:1041AC003F480008F110000800000000BF33000871
:1041BC0000000000BF33000800000000BF330008FF
:1041CC0000000000BF33000800000000BF330008EF
:1041DC0000000000BF33000800000000BF330008DF
:1041EC0000000000BF33000800000000BF330008CF
:1041FC0000000000BF33000800000000BF330008BF
:10420C0000000000BF33000800000000BF330008AE
:10421C0000000000BF33000800000000BF3300089E
:10422C0000000000BF33000800000000BF3300088E
:10423C0000000000BF33000800000000BF3300087E
:10424C0000000000BF33000800000000BF3300086E
:10425C0000000000BF33000800000000BF3300085E
:10426C0000000000BF33000800000000BF3300084E
:10427C0000000000BF33000800000000BF3300083E
:10428C0000000000BF33000800000000BF3300082E
:10429C0000000000BF33000800000000BF3300081E
:1042AC0000000000BF33000800000000BF3300080E
:1042BC0000000000BF33000800000000BF330008FE
:1042CC0000000000BF33000800000000BF330008EE
:1042DC0000000000BF33000800000000BF330008DE
:1042EC0000000000BF33000800000000BF330008CE
:1042FC0000000000BF33000800000000BF330008BE
:10430C0000000000BF33000800000000BF330008AD
:10431C0000000000BF33000800000000BF3300089D
:10432C0000000000BF33000800000000BF3300088D
:10433C0000000000BF33000800000000BF3300087D
:10434C0000000000BF33000800000000BF3300086D
:10435C0000000000BF33000800000000BF3300085D
:10436C0000000000BF33000800000000BF3300084D
:10437C001B370008733500087F350008913500089D
:10438C009B350008A7350008C5150008B535000891
:04439C00000000001D
:1043A0007538000897380008B3380008D13800087D
:1043B0005534000899340008000000002D1300084F
:0C43C0003935000800000000E734000858
:1043CC00D7390008A139000847390008C519000879
:0443DC00F9390008A3
:1043E000EC3F00080E000000EC3F00080700000052
:1043F000EC3F000800000000144800080000009096
:104400000000001000000002000001200000000079
:1044100000000B06020000001C4400080000000819
:104420003048000826000207000001203848000834
:1044300022000B11FFFF0000002802400A000000CC
:104440003000000000040000FFFF000000240240D4
:10445000090000003000000000020000FFFF000023
:1044600000200240080000003000000000010000B1
:10447000FFFF0000001C02400700000030000000A9
:1044800080000000FFFF000000180240060000004E
:104490003000000040000000FFFF00000014024058
:1044A000050000003000000020000000FFFF0000B9
:1044B0000010024004000000300000001000000066
:1044C000FFFF0000000C024003000000300000006D
:1044D00008000000FFFF000000080240020000008A
:1044E0003000000004000000FFFF00000004024054
:1044F000010000003000000002000000FFFF00008B
:104500000000024000000000300000000100000038
:104510000C400008EC3F0008CC3F0008AC3F00080E
:104520008C3F00086C3F00084C3F00082C3F0008FF
:104530000C3F0008EC3E0008CC3E000800000000E4
:10454000000000000000000000000000000000006B
:104550000000000000380240001401408C3E0008BA
:10456000850400007C4500080100000000000000F8
:104570000000000000000000844500084400000026
:10458000200000008C450008010000009445000850
:1045900002000000C80D000000020000280D00000D
:1045A00000000000004800408C3E0008120400009B
:1045B000C8450008010000000000000000000000E5
:1045C00000000000D045000840000000000004008A
:1045D000D845000801000000E04500080200000086
:1045E000070700000002000027070000000000008D
:1045F000CC3D0008CC3D00085C3E0008643E00084D
:104600006C3E00086C3E00080010000000304F4E69
:10461000004F4646005B54315D204C4544302069D4
:1046200073206E6F77202573207C205B54315D20D2
:10463000736C656570203530306D730A005B5432E1
:104640005D204C454431206973206E6F77202573BF
:10465000207C205B54325D20736C656570203230A5
:10466000306D730A005B54335D20426C696E6B20C1
:10467000313A204C454432204F4E207C20005B5480
:10468000335D20426C696E6B20323A204C454432D7
:10469000204F4646207C205B54335D20736C65655B
:1046A00070203830306D730A005B494E49545D20EC
:1046B0004572726F723A204C454420646576696396
:1046C00065206E6F742072656164790A005B494EE3
:1046D00049545D204572726F7220636F6E66696720
:1046E0007572696E672070696E2025640A005B4DE3
:1046F00041494E5D205374617274696E67204C4568
:1047000044207468726561642064656D6F0A005BA3
:104710004D41494E5D204C454420696E6974696184
:104720006C697A6174696F6E206661696C65640A90
:10473000005B4C4544305D20496E697469616C6969
:104740007A6564206F6E2070696E2025640A005BB4
:104750004C4544315D20496E697469616C697A65C4
:1047600064206F6E2070696E2025640A005B4C45E2
:1047700044325D20496E697469616C697A656420B0
:104780006F6E2070696E2025640A0A005B54315DEB
:10479000204C4544302074687265616420737461F4
:1047A0007274656420283530306D7320746F6767CC
:1047B0006C65290A005B54325D204C4544312074FD
:1047C0006872656164207374617274656420283254
:1047D00030306D7320746F67676C65290A005B5415
:1047E000335D204C454432207468726561642073E7
:1047F00074617274656420286275727374203278F3
:10480000207468656E203830306D73207265737463
:10481000290A0A006D656D6F72792D706C61636590
:10482000686F6C6465724039303030303030300041
:10483000464C4153485F30005352414D5F30000AAF
:1048400006050504010301020101010001696E74FE
:104850006572727570742D636F6E74726F6C6C65B7
:10486000724034303031336330300072636340342F
:1048700030303233383030006770696F4034303058
:104880003232383030006770696F40343030323245
:10489000343030006770696F40343030323230303D
:1048A00030006770696F403430303231433030004F
:1048B0006770696F403430303231383030006770A3
:1048C000696F403430303231343030006770696F96
:1048D000403430303231303030006770696F4034EE
:1048E00030303230433030006770696F40343030E0
:1048F0003230383030006770696F403430303230D9
:10490000343030006770696F4034303032303030CE
:10491000300072657365742D636F6E74726F6C6CAA
:1049200065720073657269616C40343030313134C6
:1049300030300073657269616C4034303030343827
:1049400030300000000000000000000102030406F7
:104950000708096D61696E002A2A2A20426F6F7468
:10496000696E67205A6570687972204F53206275AE
:10497000696C642076342E312E302D323039352D4D
:1049800067653432306232313833346539202A2A4F
:104990002A0A00286E756C6C29002A666C6F617497
:0449A0002A000000E9
:1049A4008B3300088D080008000000000F34000855
:1049B40000000000000000000000000020000120B2
:1049C40000C20100000103000000000030000120CB
:1049D40000C20100000103000024F4003C00012097
:1049E4003C000120FFFFFFFFFFFFFFFFFFFFFFFF72
:0449F400FFFFFFFFC3
:1049F80000000000000000000000000000000000AF
:104A0800000000000000000000000000000000009E
:044A180015E015E0B0
:0400000508000BA93B
:00000001FF
